:100000000C945B000C9483000C9483000C9483008C
:100010000C9483000C9483000C9483000C94830054
:100020000C9483000C9483000C9483000C94830044
:100030000C9483000C9483000C9483000C94830034
:100040000C942C030C9483000C94AD050C94830049
:100050000C9483000C9483000C9483000C94830014
:100060000C9483000C948300000024272A000025B0
:10007000282B000023262904040404040404040299
:100080000202020202030303030303010204081035
:100090002040800102040810200102040810200002
:1000A0000000070002010000030406000000000039
:1000B00000000000840111241FBECFEFD4E0DEBF9A
:1000C000CDBF11E0A0E0B1E0ECEAFCE002C0059099
:1000D0000D92A231B107D9F711E0A2E1B1E001C060
:1000E0001D92AE3AB107E1F710E0C6EBD0E004C0D4
:1000F0002297FE010E945006C43BD107C9F70E9417
:100100007D010C9454060C9400000F931F93809172
:1001100012010E940C0490931501809314018091A8
:1001200000010E940C0490931701809316018091A6
:1001300002010E940C049093190180931801809190
:1001400004010E940C0490931B0180931A0180917A
:1001500006010E940C0490931D0180931C01809164
:1001600008010E940C0490931F0180931E0100E27D
:1001700011E020E030E041E050E060E070E0C801D4
:100180000E940C036091140170911501C8010E9436
:10019000F40220E030E04AE050E060E070E0C801A6
:1001A0000E940C0320E030E042E050E060E070E0AC
:1001B000C8010E940C036091160170911701C801DB
:1001C0000E94F40220E030E04AE050E060E070E09D
:1001D000C8010E940C0320E030E043E050E060E002
:1001E00070E0C8010E940C03609118017091190120
:1001F000C8010E94F40220E030E04AE050E060E0F4
:1002000070E0C8010E940C0320E030E044E050E0C0
:1002100060E070E0C8010E940C0360911A017091C7
:100220001B01C8010E94F40220E030E04AE050E0E7
:1002300060E070E0C8010E940C0320E030E045E07F
:1002400050E060E070E0C8010E940C0360911C0166
:1002500070911D01C8010E94F40220E030E04AE0E4
:1002600050E060E070E0C8010E940C0320E030E044
:1002700046E050E060E070E0C8010E940C0360912D
:100280001E0170911F01C8010E94F40220E030E0BD
:100290004AE050E060E070E0C8010E940C0364E6B0
:1002A00070E080E090E00E9497031F910F91089505
:1002B00060E0809112010E947E0460E08091000164
:1002C0000E947E0460E0809102010E947E0460E052
:1002D000809104010E947E0460E0809106010E94EA
:1002E0007E0460E0809108010E947E0460E875E26F
:1002F00080E090E00E94330508950E94CF030E94A1
:1003000058010E948500FDCF8EE091E0909321017D
:10031000809320010895862F0E946C0508950E9405
:10032000A40508950E94850508950E947405089506
:10033000CB01BA010E9433050895DC01ED91FC91D7
:100340000190F081E02D09950895DC01ED91FC917B
:100350000190F081E02D099508950F931F93CF939D
:10036000DF938C01EB0109C02196D801ED91FC913E
:100370000190F081E02DC801099568816623A1F7FD
:10038000DF91CF911F910F9108950F931F938C01CF
:10039000DC01ED91FC910190F081E02D6DE009957B
:1003A000D801ED91FC910190F081E02D6AE0C80147
:1003B00009951F910F9108950F931F938C01DC01F4
:1003C000ED91FC910190F081E02D0995C8010E940A
:1003D000C5011F910F9108950F931F938C010E94E7
:1003E000AD01C8010E94C5011F910F9108950F939F
:1003F0001F938C01DC01ED91FC910190F081E02DC7
:100400000995C8010E94C5011F910F9108952F926F
:100410003F924F925F926F927F928F929F92AF9294
:10042000BF92CF92DF92EF92FF920F931F93DF93D1
:10043000CF93CDB7DEB7A0970FB6F894DEBF0FBE4F
:10044000CDBF1C016A017B01411551056105710594
:1004500049F4DC01ED91FC910190F081E02D60E325
:10046000099554C0882499245401422E55246624A9
:10047000772401E010E00C0F1D1F080D191DC701A6
:10048000B601A30192010E94FD05F8016083089462
:10049000811C911CA11CB11CC701B601A3019201D2
:1004A0000E94FD05C901DA016C017D01C114D1046E
:1004B000E104F104F1F681E0E82EF12CEC0EFD1ED2
:1004C000E80CF91C3E010894611C711CD501C401A3
:1004D0000197A109B1096C01C818D90814C0F60127
:1004E000EE0DFF1D60816A3010F4605D01C0695C33
:1004F000D101ED91FC910190F081E02DC1010995B0
:100500000894E108F1086E147F0449F7A0960FB62D
:10051000F894DEBF0FBECDBFCF91DF911F910F9139
:10052000FF90EF90DF90CF90BF90AF909F908F9013
:100530007F906F905F904F903F902F9008952AE0AA
:100540000E94070208950F931F938C010E949F023F
:10055000C8010E94C5011F910F910895AB0160E091
:1005600070E00E949F0208950F931F938C01AB01CE
:1005700060E070E00E949F02C8010E94C5011F91C7
:100580000F910895EF92FF920F931F93CF93DF93F4
:10059000EC017A018B0177FF0FC0E881F9810190AE
:1005A000F081E02D6DE2099510950095F094E094AE
:1005B000E11CF11C011D111D2AE0B801A701CE01AB
:1005C0000E940702DF91CF911F910F91FF90EF9052
:1005D00008950F931F938C010E94C202C8010E94CC
:1005E000C5011F910F910895AB01662757FD6095D6
:1005F000762F0E94C20208950F931F938C01AB01C6
:10060000662757FD6095762F0E94C202C8010E949E
:10061000C5011F910F910895DC012115310541F4A9
:10062000ED91FC910190F081E02D642F09950895E2
:100630002A30310519F40E94C20208950E9407026F
:1006400008950F931F938C010E940C03C8010E9410
:10065000C5011F910F9108951F920F920FB60F922F
:1006600011242F938F939F93AF93BF938091220177
:1006700090912301A0912401B09125018050904CCC
:10068000AF4FBF4F8093220190932301A093240189
:10069000B093250127C08091220190912301A09160
:1006A0002401B091250180589E43A040B040809322
:1006B000220190932301A0932401B09325018091FE
:1006C000260190912701A0912801B091290101965E
:1006D000A11DB11D8093260190932701A0932801AD
:1006E000B09329018091220190912301A0912401CE
:1006F000B091250181589E43A040B04060F6BF9163
:10070000AF919F918F912F910F900FBE0F901F90DF
:1007100018958FB7F89420912601309127014091C8
:100720002801509129018FBFB901CA010895EF92A4
:10073000FF920F931F937B018C018FB7F894409128
:1007400026015091270160912801709129018FBFE6
:100750002FB7F8948091260190912701A09128014C
:10076000B09129012FBF841B950BA60BB70B8E15DB
:100770009F05A007B10760F31F910F91FF90EF90C5
:100780000895019759F0FC01EE0FFF1FEE0FFF1FB8
:1007900032978FB7F8943197F1F78FBF0895789417
:1007A00084B5826084BD84B5816084BD85B5826076
:1007B00085BD85B5816085BDEEE6F0E08081816014
:1007C0008083E1E8F0E080818260808380818160C5
:1007D0008083E0E8F0E0808181608083E1EBF0E0FD
:1007E000808184608083E0EBF0E0808181608083A1
:1007F000EAE7F0E08081846080838081826080838A
:100800008081816080838081806880831092C100B4
:1008100008958093100108958F7090911001929522
:10082000990F990F907C982B90937C0080917A007F
:10083000806480937A0080917A0086FDFCCF2091BD
:10084000780040917900942F80E030E0282B392BFC
:10085000C90108951F93CF93DF93182FEB0161E037
:100860000E947E04E12FF0E0E156FF4F8491833037
:1008700051F480918000806880938000D09389003B
:10088000C093880037C0843051F48091800080622A
:1008900080938000D0938B00C0938A002BC081305E
:1008A00029F484B5806884BDC7BD24C0823029F492
:1008B00084B5806284BDC8BD1DC0863041F480917E
:1008C000B00080688093B000C093B30013C087303D
:1008D00041F48091B00080628093B000C093B40076
:1008E00009C0C038D10514F460E001C061E0812F77
:1008F0000E949C04DF91CF911F910895282F30E032
:10090000C90185579F4FFC01949129583F4FF90128
:100910008491882381F0E82FF0E0E859FF4FE491BB
:10092000F0E0662329F480819095892380830895DF
:100930008081892B80830895482F50E0CA01815619
:100940009F4FFC012491CA0185579F4FFC01949150
:1009500049585F4FFA0134913323C1F1222331F119
:10096000233021F4809180008F7705C0243031F44A
:10097000809180008F7D8093800018C0213019F411
:1009800084B58F7704C0223021F484B58F7D84BD77
:100990000DC0263021F48091B0008F7705C027303C
:1009A00029F48091B0008F7D8093B000E32FF0E0B8
:1009B000E359FF4FE491F0E0662329F4808190959C
:1009C0008923808308958081892B80830895482F0F
:1009D00050E0CA0181569F4FFC012491CA018557FE
:1009E0009F4FFC01949149585F4FFA013491332392
:1009F00019F420E030E035C0222331F1233021F416
:100A0000809180008F7705C0243031F48091800080
:100A10008F7D8093800018C0213019F484B58F77C2
:100A200004C0223021F484B58F7D84BD0DC02630F2
:100A300021F48091B0008F7705C0273029F4809190
:100A4000B0008F7D8093B000E32FF0E0EE58FF4FB1
:100A5000E491F0E0808120E030E0892311F021E092
:100A600030E0C9010895EF92FF920F931F937B012D
:100A70008C0122E030E040E050E00E941F06205C44
:100A80003D4B404F5F4FCA01B901A80197010E9439
:100A90001F06C901DA010197A109B109292F3A2FCF
:100AA0004B2F552747FD5A950196A11DB11D209347
:100AB000C50081508093C400E1ECF0E0808180614A
:100AC00080838081886080838081806880831F919B
:100AD0000F91FF90EF900895982F8091C00085FFAF
:100AE000FCCF9093C600089580912A0190912B012C
:100AF00080589F4F20912C0130912D01821B930B28
:100B000060E870E00E94EA05089540912C01509140
:100B10002D0180912A0190912B018417950719F4DA
:100B20002FEF3FEF0FC0FA01E25DFE4F2081CA01B7
:100B3000019660E870E00E94EA0590932D01809391
:100B40002C0130E0C901089580912C0190912D0174
:100B500090932B0180932A0108951F920F920FB654
:100B60000F9211242F933F934F935F936F937F9333
:100B70008F939F93AF93BF93EF93FF934091C600E2
:100B8000E0912A01F0912B01CF01019660E870E01D
:100B90000E94EA059C0180912C0190912D0128175B
:100BA000390739F0E25DFE4F408330932B012093EB
:100BB0002A01FF91EF91BF91AF919F918F917F910A
:100BC0006F915F914F913F912F910F900FBE0F90BA
:100BD0001F90189597FB092E07260AD077FD04D0A1
:100BE00049D006D000201AF4709561957F4F089582
:100BF000F6F7909581959F4F0895A1E21A2EAA1BB2
:100C0000BB1BFD010DC0AA1FBB1FEE1FFF1FA217BC
:100C1000B307E407F50720F0A21BB30BE40BF50BB9
:100C2000661F771F881F991F1A9469F76095709542
:100C3000809590959B01AC01BD01CF01089597FB74
:100C4000092E05260ED057FD04D0D7DF0AD0001C90
:100C500038F450954095309521953F4F4F4F5F4F59
:100C60000895F6F790958095709561957F4F8F4F19
:100C70009F4F0895AA1BBB1B51E107C0AA1FBB1FB2
:100C8000A617B70710F0A61BB70B881F991F5A9518
:100C9000A9F780959095BC01CD010895EE0FFF1F37
:0C0CA0000590F491E02D0994F894FFCF2A
:100CAC0001000200030004000500000000008B019D
:020CBC00010035
:00000001FF
